:020000040800F2
:1000000004400020AD430008514300085D43000850
:10001000694300087543000881430008422BFEAF86
:100020000000000000000000000000003141000856
:100030008D43000800000000C9410008612C000841
:10004000B14B00089B4B0008854B00086F4B000824
:10005000594B0008434B00082D4B0008174B000874
:10006000014B0008EB4A0008D54A0008BF4A0008C7
:10007000A94A0008934A00087D4A0008674A000818
:10008000514A00083B4A0008254A00080F4A000868
:10009000F9490008E3490008CD490008B7490008BC
:1000A000A14900088B490008754900085F4900080C
:1000B00049490008334900081D490008074900085C
:1000C000F1480008DB480008C5480008AF480008B0
:1000D00099480008834800086D4800085748000800
:1000E000414800082B48000815480008FF47000851
:1000F000E9470008D3470008BD470008A7470008A4
:10010000914700087B470008654700084F470008F3
:1001100039470008234700080D470008F746000844
:10012000E1460008CB460008B54600089F46000897
:1001300089460008734600085D46000847460008E7
:10014000314600081B46000805460008EF45000838
:10015000D9450008C3450008AD450008974500088B
:10016000814500086B450008554500083F450008DB
:100170002945000813450008FD440008E74400082D
:10018000D1440008BB440008A54400088F4400087F
:1001900079440008634400084D44000837440008CF
:1001A0000000000021440008312A0008994300089B
:1001B0007D2800087047704770477047704700F00F
:1001C0000FBB10B5B02104460EF0AEFC204610BDAA
:1001D00010B5044600F046FB014B2360204610BDDD
:1001E00018F100087047A0F10400FBE7704710B554
:1001F000102104460EF098FC204610BDA0F104002A
:10020000F5E7000010B500228260044AC16002F1E7
:10021000080420320460426010BD00BF44F10008B1
:100220007047A0F10400FBE7704710B510210446A9
:100230000EF07AFC204610BDA0F10400F5E70000A6
:1002400010B50446112340220A49806800F06AF97B
:10025000A06809491123082200F064F9A068074941
:100260001123302200F05EF9A068BDE8104000F0D4
:1002700013B900BF0018024000280240000C0240E1
:1002800008B5806800F0C8F908210248BDE80840B8
:1002900006F001B80028024008B511B1012905D0C7
:1002A00008BD8068BDE8084000F0E2B911468068EA
:1002B00000F0B8F980B208BD10B500228260044A8F
:1002C000C16002F1080428320460426010BD00BF22
:1002D0006CF10008704700F07ABB000010B5D0F850
:1002E000E8330133132B94B0C8BF14230446C0F87D
:1002F000E83368460CF0E2FB1149024668460CF010
:10030000F6FBD4F8E8330F4A0A2104F521700CF00B
:10031000EBFE6B460C4A322104F526700CF0E4FE2D
:1003200004F58C700BF033FC04F5D4700BF02FFC4B
:10033000E06B0649036809221B69984714B010BD99
:100340009CF10008A1F10008A4F10008A7F1000841
:1003500010B5D0F8E833013B002B94B0D8BF002390
:100360000446C0F8E83368460CF0A8FB1149024681
:1003700068460CF0BCFBD4F8E8330F4A0A2104F5B8
:1003800021700CF0B1FE6B460C4A322104F5267048
:100390000CF0AAFE04F58C700BF0F9FB04F5D47098
:1003A0000BF0F5FBE06B0649036809221B699847CF
:1003B00014B010BDB1F10008A1F10008A4F10008CB
:1003C000B6F1000830B5002380F8F0330446C06B66
:1003D000036804F57C752A46B3B05B690121984730
:1003E000C2B2BAB1E06B036829461B699847284638
:1003F0000CF071FB2946024668460CF078FB6B4610
:10040000054A642104F544700CF06EFE04F5137087
:100410000BF0BDFB33B030BDA4F1000810B50446AD
:1004200000F03CFC014B2360204610BDC8F10008E1
:1004300010B5064B0360044600F5BE7009F0B8F92C
:1004400004F5A87009F0B4F9204610BD44F4000882
:1004500010B50446FFF7ECFF20464FF4FE610EF0A6
:1004600063FB204610BD002242608260704700009E
:100470000368074A0133036013680133142B01DC5E
:1004800013607047002340210248136005F003BF4A
:10049000E40800200018024073B51C4B1C495A6C3C
:1004A00042F020025A645A6C02F0200200921A6B49
:1004B00042F040021A631B6B03F040034FF0020E40
:1004C00001934FF48443002481E808400546032348
:1004D000082610488C60CB600E6105F0E5FD0E48E3
:1004E0000E4B84604FF4E13C80E808100C2343611C
:1004F000C46004618461C46108F04CF83146084866
:1005000005F0C9FE01236B6002B070BD00380240E7
:10051000D008002000180240E80800200014014024
:100520000028024030B51546394A0C46116B41F09F
:1005300010011163116B8DB001F010010191116B6D
:1005400041F040011163116B01F040010291116B08
:1005500041F002011163116B01F002010391116B73
:1005600041F004011163116B01F004010491116B5E
:1005700041F001011163116B01F001010591116B53
:1005800041F008011163116B01F008010691116B34
:1005900041F480711163116B01F480710791116B4B
:1005A00041F020011163116B01F020010891116BE2
:1005B00041F480611163116B01F480610991116B49
:1005C00041F080011163116B01F080010A91116B00
:1005D00041F400711163126B02F400720B920D4A28
:1005E000112B156053604FF000010CD19160D16068
:1005F0002046084905F058FD01222946204605F00D
:1006000045FE0DB030BD002BF1D101239360EEE724
:1006100000380240D00800203223014807F0E8BF2C
:10062000E808002073B5114E0D4600240DF10701B6
:1006300014230122304608F036F8A1B270B99DF8B3
:1006400007200D2A9DBF42F20143D340DB43012323
:10065000DB0704F1010401D56A54E7E700236B547A
:1006600028460EF0ADFBC0B202B070BDE808002015
:10067000008870477047704700F030BD10B56C219E
:1006800004460EF051FA204610BD000010B5044695
:1006900000F02CFD014B2360204610BD04F2000841
:1006A0007047A0F10400FBE7704710B51021044625
:1006B0000EF03AFA204610BDA0F10400F5E7000064
:1006C00010B500228260044AC16002F108042032A1
:1006D0000460426010BD00BF30F2000870477047F0
:1006E00010B54FF4A87104460EF01EFA204610BD56
:1006F00010B50446D0F84C01FFF7BAFE2046BDE81D
:1007000010400AF023BD10B50446D0F8340158B1AA
:100710000368DB68984738B1D4F8340103689B68F4
:1007200098470023C4F8343110BD000010B50446CA
:1007300000F0E0FF014B2360204610BD60F200088E
:100740007047704770B51E460368BDF910505B6B6B
:10075000044698472368314620469A6B90472368A1
:1007600029462046DB6BBDE8704018478180704702
:10077000C180704770B503680446DB6A1546984728
:100780002368294620461B6BBDE87040184701814D
:100790007047418170477047704770477047704796
:1007A000C38810B4D21A83885DF8044BC91A036851
:1007B00012B25B6D09B218474FF6FF738381038451
:1007C00043841368C3611060704790F825201AB104
:1007D00090F8242002B118607047012070477047DC
:1007E0007047704710B4C2688368406812F0010F08
:1007F0004FEA620218BF8458104418BFE3585DF8EE
:10080000044B184743682BB183682BB9C06800F0CC
:1008100001007047184670470120704710B510213D
:1008200004460EF081F9204610BD10B5B0210446F3
:100830000EF07AF9204610BD012908B505D10AF05D
:10084000C1FDBDE8084000F0ABBF08BD6C30884278
:1008500008B505D10AF0B6FDBDE8084000F070BF4C
:1008600008BD00002DE9F347044626460DF10808AF
:1008700000250BF071FC4FF6FF77434B28F8047D01
:10088000E56346F8403B4FF00109404BA4F8445063
:10089000A4F84650A4F84850A4F84A50A4F84C5084
:1008A000A4F84E50A4F85050A4F852506565A565C0
:1008B000E56584F8645023644146304684F86590C9
:1008C000A4F8667084F8687009F04DFC304BE3665C
:1008D000304BC4F8A030304BC4F8A8302A46A4F8F6
:1008E0007050A4F87250A4F87450A4F87650A4F88C
:1008F0007850A4F87A50A4F87C50A4F87E50C4F83C
:100900008050C4F88450C4F88850C4F8945084F8D7
:100910009850C4F8AC502946304684F8919084F839
:100920009090A4F89A70A4F89C7084F89E70C4F813
:10093000A440FFF71FFF04F16C0A41463046ADF8B2
:10094000049009F010FC5046D92240F27911FFF7CB
:1009500011FF0723424669465046ADF80030ADF816
:100960000430251D09F070FA04F1A003C4F8943096
:100970003146284608F04EF82846514608F04AF815
:10098000204602B0BDE8F087B4F20008B80D0108B7
:100990008C0C01089CF200084D080008002202801F
:1009A00042808280C280704770B503680446DB6A6B
:1009B000154698472368294620465B6EBDE870407F
:1009C00018470D2070470E207047704770477047DA
:1009D0007047704710B4C2688368406812F0010F16
:1009E0004FEA620218BF8458104418BFE3585DF8FC
:1009F000044B184743682BB183682BB9C06800F0DB
:100A000001007047184670470120704710B5382123
:100A100004460EF089F8204610BD10B5102104469A
:100A20000EF082F8204610BD00F14002914210B550
:100A300004D103681B6BBDE81040184700F1A80201
:100A4000914202D10368DB6AF5E700F5067399422B
:100A500005D10AF0B7FCBDE8104000F091BE10BD12
:100A6000094A026000228280C28002814281828122
:100A7000C2810282428242618261C26180F8242086
:100A8000012280F8252070470810010808B5094B9D
:100A90001B682BB9084B094ACF21094801F030FBEC
:100AA000084B02881B889A4203DB074B034AD0217C
:100AB000F3E708BD2438002074F3000878F4000838
:100AC000B6F3000828380020E9F3000810B5044602
:100AD000FFF7DCFF044B22881B6813F81220034B3E
:100AE0001B6853F8220010BD243800202C38002049
:100AF00073B5036804461E6BC38C02A80D4620F82C
:100B0000043DFFF7E3FF0368DB6A9847291A09B23F
:100B10002046B04702B070BD10B50446FFF7B6FFDF
:100B2000024B22881B6853F8220010BDDC0900200C
:100B300010B5C28C4FF6FF739A42044609D0263096
:100B4000FFF7EAFF626B01462046BDE8104009F05E
:100B50003DBA002010BD00002DE9F04FC68C4FF6C5
:100B6000FF739E428FB004460F464BD000F126051E
:100B70002846FFF7ABFF8046002843D02846FFF702
:100B800085FF224B94F82EA01B68B4F82C9094F8A3
:100B900030B003EB460328465E78C6F301020592A7
:100BA000FFF774FFA36A0B93194B94F82F001B688F
:100BB00094F83110059A8DF83300C6F381068DF84C
:100BC000296007AE8DF834108DF832A02146ADF8BB
:100BD000309030468DF82820CDF824808DF82AB04A
:100BE000D3F808800BF07DF82846FFF795FF636B7C
:100BF000029309AB0190009396E806003B464046FD
:100C000009F024FC0FB0BDE8F08F00BF24380020AD
:100C1000C43700202DE9F041C78C4FF6FF739F4287
:100C200004461BD000F126052846FFF74FFF064675
:100C30002846FFF72BFF2846FFF76EFF094B1B687E
:100C400003EB4703024659783368DD69636B30462E
:100C5000AC46C1F38101BDE8F04160470020BDE82A
:100C6000F08100BF2438002010B50446FFF7F8FEDD
:100C70004FF6FF720023E28484F82E20064AA36216
:100C8000A38584F82F3084F8303084F83130226026
:100C90006363204610BD00BFE8F200082DE9F04F65
:100CA00004468FB0274600250BF056FAE24BE56369
:100CB00047F8403B0EAE384609F02CFA4FF6FF7865
:100CC00004F17C0326F8048D18460293FFF7C8FE52
:100CD000DA4BE367314604F1A80AA4F8A28084F84D
:100CE000A480029809F03FFA504609F013FA04F183
:100CF000E40318460593FFF7B3FED14BC4F8E43084
:100D000004F58C73A4F80A81C4F80C51A4F81051AE
:100D100084F8128184F8135184F8145184F8155121
:100D200018460693FFF7A0FF04F5A873184603932F
:100D300008F090FD04F5BE731846049308F08AFD90
:100D400004F5D47318460793FFF78EFF04F5F0738C
:100D500018460893FFF788FF04F5067318464FF00E
:100D600001090993FFF77CFEB64BA4F84682A4F86C
:100D7000488284F84A8204F51378C4F8405284F813
:100D8000445284F83C92C4F818324046FFF76CFF96
:100D9000AD4BC4F8D833AD4BC4F8E033C4F8E453DA
:100DA0003846C4F8DC434FF48F7240F24D21FFF710
:100DB000E1FC4FF0040B4FF0030332460CA9384618
:100DC000ADF83030ADF834B009F03EF838460C21BB
:100DD00009F040F938463C2109F041F904F57673F1
:100DE000A3662A4684F87250294602980A93FFF7B0
:100DF000C1FC31460298ADF8349009F0B4F9504680
:100E00008C2240F24D21FFF7B5FC4FF00303324630
:100E10000CA95046ADF83030ADF834B009F014F8F4
:100E200050460C2109F016F950463C2109F017F9FB
:100E30000A9BC4F8D030192384F8DA50009305983F
:100E40004FF4C47340F2BD12CC21FFF77BFC50225B
:100E5000114654200CF056F9A4F81051C4F80C01B6
:100E60002946059808F098FF8C2300930698C8231C
:100E7000AA226821FFF766FC4D22114610460CF0AD
:100E800041F904F52173C4F84001A4F844510B93CF
:100E900030460223ADF83430FFF73EFE6C4A03467D
:100EA0000A210B980CF020F90B9BC4F84C314946F1
:100EB000069808F071FF4FF02D094FF005033146F9
:100EC0000398ADF8343008F081FC4FF49372CDF8FC
:100ED00000904623039840F27F21FFF733FC294618
:100EE000039808F066FC4FF0080331460498ADF80B
:100EF000343008F06BFCCDF800904623942204981F
:100F000040F27F21FFF71EFC2946049808F051FCAF
:100F10002223009307984FF4B87340F2491214212A
:100F2000FFF710FC362211463B200CF0EBF8A4F83A
:100F3000D451C4F8D0013046ADF834B0FFF7ECFD21
:100F400004F526790346424A322148460CF0CCF893
:100F5000C4F8DC9107984FF0030108F01DFF1E2331
:100F600000930898A32306220D21FFF7EBFB6222D2
:100F7000114678200CF0C6F84FF00609C4F80802B4
:100F8000A4F80C523046ADF83490FFF7C5FD04F5D7
:100F90003F7B03462E4A0A2158460CF0A5F80898D4
:100FA000C4F814B24FF0050108F0F6FE09980E22BD
:100FB0004FF43871FFF7DEFB32460CA90998ADF803
:100FC0003090ADF8349008F03FFF0A9BC4F84032EF
:100FD0001C230093404640F2652324220D21FFF795
:100FE000B1FB6322114610460CF08CF8A4F878523D
:100FF000C4F874024FF008033046ADF83430FFF700
:101000008BFD04F544750346114A642128460CF013
:101010006BF8C4F880524046251D4FF0070108F0D8
:10102000BBFE3946284607F0F5FC0299284607F032
:10103000F1FC51460EE000BF44F40008B80D010871
:10104000AC0B01088C0C010864F30008290A0008A5
:10105000A4F10008284607F0DDFC0599284607F0B2
:10106000D9FC0699284607F0D5FC0399284607F0D5
:10107000D1FC0499284607F0CDFC0799284607F0D3
:10108000C9FC0899284607F0C5FC0999284607F0CD
:10109000C1FC2846414607F0BDFC20460FB0BDE824
:1010A000F08F00BF10B5064B0360044600F5BE701C
:1010B00008F07EFB04F5A87008F07AFB204610BD0E
:1010C00044F4000810B50446FFF7ECFF20464FF447
:1010D0007A710DF029FD204610BD7047704710B59C
:1010E0006C2104460DF020FD204610BDF7B50446E6
:1010F00026460BF031F8002502AF1E4BE56346F89B
:10110000403B4FF6FF7327F8043D012284F8652029
:10111000194AA4F8663084F86830226439463046AB
:10112000A4F84450A4F84650A4F84850A4F84A50F3
:10113000A4F84C50A4F84E50A4F85050A4F85250C3
:101140006565A565E56584F8645009F00CF82A46E4
:1011500029463046FFF70EFB39463046ADF80450BD
:1011600009F001F8201D314607F054FC204603B079
:10117000F0BD00BFB0F40008B80D0108704770471B
:101180004160704770477047012303727047704792
:10119000704770477047704743681A6800F128012C
:1011A000926E1846104700001FB50A4B04468DE8A2
:1011B00018001823029340680123039303686946CB
:1011C000DB6F98476068036804F128015B6E9847FD
:1011D00004B010BD98F500087047000010B5064A2D
:1011E000B2F90040054A8480B2F90010C1800022A3
:1011F0000280428010BD00BFB8370020BA370020FF
:1012000010B4C2688368406812F0010F4FEA6202AE
:1012100018BF8458104418BFE3585DF8044B1847B2
:1012200043682BB183682BB9C06800F00100704798
:10123000184670470120704710B4C2688368406840
:1012400012F0010F4FEA620218BF8458104418BF11
:10125000E3585DF8044B184743682BB183682BB9FA
:10126000C06800F0010070471846704701207047C1
:10127000C2688368406812F0010F4FEA620218BF2B
:101280008158104418BFCB58184743682BB1836866
:101290002BB9C06800F00100704718467047012064
:1012A000704710B50C2104460DF03EFC204610BDE1
:1012B00010B54FF4A87104460DF036FC204610BD61
:1012C00010B5102104460DF02FFC204610BD10B5BE
:1012D000282104460DF028FC204610BD10B55021F1
:1012E00004460DF021FC204610BD10B51021044627
:1012F0000DF01AFC204610BD10B5102104460DF06B
:1013000013FC204610BD70B516460C4605460AF083
:1013100059F80AF0A4F8306810B10368DB68984700
:10132000306810B103681B689847286810B10368DB
:101330005B699847206810B103685B689847286824
:1013400010B103681B689847206820B10368BDE8A6
:1013500070409B68184770BD70B503680E46DB6827
:10136000144605469847336830461B68984721461F
:1013700028460BF06FF8236820461B6998470AF04F
:1013800021F80368BDE870409B6A184710B4034613
:1013900008461A7F032A12D8DFE802F00B0B02027C
:1013A0000268B3F92210546D002223465DF8044B05
:1013B000184702680021546DB3F92220F5E7012295
:1013C0001A725DF8044B704710B403460846DA6B96
:1013D0008A4218D093F85020032A12D8DFE802F08E
:1013E0000B0B02020268B3F95610546D002223461B
:1013F0005DF8044B184702680021546DB3F956207C
:10140000F5E701221A725DF8044B7047054B1B7813
:1014100033B143681A6800F10C01926E1846104708
:10142000704700BFC3370020034B1A88036852423D
:101430005B6D12B200211847BA37002010B4027F4A
:101440000B46032A22D8DFE802F0151A020D1149D3
:101450001A68B1F90010546D0022184623465DF851
:10146000044B18470B4A11881A684942546D09B257
:101470000022F2E718465DF8044BFFF7D5BF1A6863
:10148000546D054A0021B2F90020E6E75DF8044BEF
:10149000704700BFB8370020BA37002010B490F86A
:1014A00050200B46032A22D8DFE802F0151A020D5D
:1014B00010491A68B1F90010546D002218462346ED
:1014C0005DF8044B18470B4A11881A684942546D5D
:1014D00009B20022F2E718465DF8044BFFF7A4BFFB
:1014E0001A68546D044A0021B2F90020E6E75DF85D
:1014F000044B7047B8370020BA370020F0B50446D7
:10150000807F637F0130C0B2984287B0A07730DC23
:10151000B4F9202000210AF0B9FF82B212F00103D1
:101520002DD04FF6FF710028D8BF0B4613446384BB
:10153000B4F92220A38CA284D31AA27F9BB219B241
:10154000012A618440D12D4A1278002A3CD0002221
:10155000ADF80820ADF80A20ADF80C20ADF80E204B
:10156000227F274E274D032A12D8DFE802F03941A7
:101570000A34012323720023A37707B0F0BD6084EF
:10158000D6E732881344ADF80C302B88ADF80E3016
:101590001D4F386803689B6A98473288ADF814205D
:1015A0002A88ADF816203A6800239568ADF8103007
:1015B000ADF812302A680193FF23009316690146A3
:1015C00002AB04AA2846B0476068036804F10C0126
:1015D000DB6F9847D1E73288ADF80810D31AD2E70D
:1015E0003288ADF80C202A88ADF80A10D31ACDE75E
:1015F0003288ADF80C202A881344C7E7C237002090
:10160000B8370020BA370020C437002010B5294B66
:101610001B78044613B90123037210BD90F85200E1
:1016200094F851300130C0B2984284F8520018DC6E
:10163000B4F9542000210AF029FF82B212F001030C
:1016400015D04FF6FF710028D8BF0B461344A4F8FD
:10165000563094F85030032B29D8DFE803F01F1FD1
:101660000B0B01232372002384F8523010BDA4F821
:101670005600EEE7B4F85610238AC91A09B2A4F846
:101680005610002204F10C000AF0B3FA60680368F7
:1016900004F14001DB6FBDE810401847B4F8562054
:1016A000638AD21A12B2A4F856200021EAE7012375
:1016B0002372EBE7C33700201FB50C4B1B780446A1
:1016C0008BB10B4B40688DE818001823029301235F
:1016D000039303686946DB6F98476068036804F109
:1016E0000C015B6E984704B010BD00BFC3370020EB
:1016F00058F5000870B504460D46164609F0C8FEB8
:101700000C4BC4F848611C600B4B236000200B4B52
:10171000C4F83001C4F83401C4F83C01C4F84001F5
:10172000C4F84401C4F83831C4F84C5100F010FC3E
:10173000204670BD20380020FCF40008E4F40008C6
:10174000064BC0F840310023C0F8443100F59C73CB
:10175000C0F83C01C0F83431704700BF09190008D7
:10176000064BC0F840310023C0F8443100F59C73AB
:10177000C0F83C01C0F83431704700BF091A0008B6
:10178000064BC0F840310023C0F8443100F59C738B
:10179000C0F83C01C0F83431704700BFDD1B0008C1
:1017A000064BC0F840310023C0F8443100F59C736B
:1017B000C0F83C01C0F83431704700BFD51C0008A8
:1017C0002DE9F347074690680A9E994603681B6A0D
:1017D000884615469847B0F5FE6F05D2404B414A02
:1017E000C221414800F08CFC686803681B6A984776
:1017F0000F2803D83D4B3B4AC321F2E7E868036852
:101800001B6A98474F2803D8394B364AC421E8E76A
:101810004A4641463846FFF776FDE86803680021EE
:101820005B6A9847044600282FD0324B0360324B46
:10183000C36000221C2342600272206143610123C5
:101840008361037780F84D302C4B83622C4B827779
:1018500014214177198842844B420384294B8284A6
:1018600009B28285C285028642868286C286028746
:101870004287C2630264426480F84C20B3F90030AE
:10188000009128301146FEF75DFFA868036800212B
:101890005B6A9847824608B1FEF7C0FD6868036836
:1018A00000215B6A9847054610B15146FEF704FDDA
:1018B000C9F80040C8F80050C7F800A06DB12B1D52
:1018C000B3605046AE602246CAF83C502946FFF746
:1018D00043FD284602B0BDE8F0872B46F0E700BF85
:1018E0003CF6000843F80008CAF60008FDF60008B8
:1018F000A0F700081CF6000898F50008B0F50008ED
:10190000BA370020B837002007B5D0F84C31009323
:10191000D0F84821044B00F598710448FFF750FFB8
:1019200003B05DF804FB00BF1C380020183800200D
:101930002DE9F04780469068089F9A4603681B6A25
:10194000894614469847AF2805D8294B294AC22111
:10195000294800F0D5FB606803681B6A98470F2888
:1019600003D8264B234AC321F2E7E06803681B6AC9
:1019700098470B2803D8224B1E4AC421E8E7524659
:1019800049464046FFF7BFFCE068036800215B6AF8
:101990009847054620B1002343600372194B03604A
:1019A000A068036800215B6A9847064608B1FEF705
:1019B0000FFC6068036800215B6A9847044610B119
:1019C0003146FEF71FFCCAF80050C9F80040C8F8BD
:1019D00000605CB1231DBB603046A7602A46F463FB
:1019E0002146FFF7B9FC2046BDE8F0872346F2E721
:1019F0003CF6000863F90008CAF60008FDF6000886
:101A0000A0F7000838F5000807B5D0F84C3100936E
:101A1000D0F84821044B00F598710448FFF788FF7F
:101A200003B05DF804FB00BF1C380020183800200C
:101A300010B5044B044640F80C3B07F02DFE204641
:101A400010BD00BF70F5000810B50446FFF7F0FFA9
:101A5000204658210DF068F8204610BD2DE9F341CD
:101A600005464FF00008244BC0F8048080F8088039
:101A700045F80C3B044628460E4607F077FE1F4B00
:101A800023641C23A3640123E364022384F85030FD
:101A90001B4BE5631B78646484F8516084F85280C2
:101AA000A4F85680E3B1174E174FB6F90020B7F9E6
:101AB00000300092414642462846FEF743FE284643
:101AC00007F0ECFD94F85030032B11D8DFE803F059
:101AD0000C0E02053B885B4200E03B88A4F85430C2
:101AE000204602B0BDE8F0813388F7E73388F2E79B
:101AF00001232372F4E700BF70F5000858F50008D1
:101B0000C3370020BA370020B83700202DE9F0474E
:101B100080469068089F9A4603681B6A8946144667
:101B20009847AF2805D8284B284AC221284800F0FA
:101B3000E7FA606803681B6A98470F2803D8254BAB
:101B4000224AC321F2E7E06803681B6A98475728D6
:101B500003D8214B1D4AC421E8E752464946404676
:101B6000FFF7D1FBE068036800215B6A98470646EF
:101B700010B11421FFF772FFA068036800215B6AAF
:101B80009847054608B1FEF723FB6068036800210B
:101B90005B6A9847044610B12946FEF733FBCAF842
:101BA0000060C9F80040C8F800505CB1231DBB605C
:101BB0002846A7603246EC632146FFF7CDFB20465E
:101BC000BDE8F0872346F2E73CF6000867FA000814
:101BD000CAF60008FDF60008A0F7000807B5D0F81F
:101BE0004C310093D0F84821044B00F5987104481B
:101BF000FFF78CFF03B05DF804FB00BF1C3800202A
:101C0000183800202DE9F04780469068089F9A46D2
:101C100003681B6A8946144698476B2805D8284BE9
:101C2000284AC221284800F06BFA606803681B6AE2
:101C300098470F2803D8254B224AC321F2E7E068D2
:101C400003681B6A9847572803D8214B1D4AC421B3
:101C5000E8E7524649464046FFF755FBE06803680F
:101C600000215B6A9847064610B11421FFF7F6FE83
:101C7000A068036800215B6A9847054608B1FEF733
:101C800005FD6068036800215B6A9847044610B14F
:101C90002946FEF715FDCAF80060C9F80040C8F8EB
:101CA00000505CB1231DBB602846A7603246EC6340
:101CB0002146FFF751FB2046BDE8F0872346F2E7B7
:101CC0003CF6000887FB0008CAF60008FDF600088D
:101CD000A0F7000807B5D0F84C310093D0F84821A0
:101CE000044B00F598710448FFF78CFF03B05DF8D2
:101CF00004FB00BF1C38002018380020704700008B
:101D000030B5144D2C78BFF35B8F14F0010489B00B
:101D10001DD1284600F0DBF9C8B13F2306930E4BD6
:101D200005930E4B049304230B220D490193079452
:101D300017230394029400940A480AF0EDFB284606
:101D400000F0C6F9084A094906480CF0E7FE0548C4
:101D500009B030BD34090020F47A0108A018010848
:101D600010EB010898090020E8090020FD1C00087C
:101D700030B5154D2C78BFF35B8F14F0010489B09A
:101D80001ED1284600F0A3F9D0B13F2306930F4B94
:101D900005930F4B049301230393042315220D494C
:101DA000019300930794142302940B480AF0B4FBA8
:101DB000284600F08DF9094A094907480CF0AEFEA3
:101DC000054809B030BD00BF28090020DCEA010841
:101DD000F87A010848EC010838090020E8090020D9
:101DE000FD1C000830B5154D2B78BFF35B8F13F049
:101DF000010489B01FD1284600F069F9D8B13F230A
:101E000006930F4B05930F4B049301230393029307
:101E1000052204238DE80C000B490794BE221723EA
:101E20000A480AF079FB284600F052F9084A0949A5
:101E300006480CF073FE054809B030BD2C0900209F
:101E4000A077010884270108201D010858090020F7
:101E5000E8090020FD1C000830B5154D2C78BFF3B3
:101E60005B8F14F0010489B01ED1284600F02FF9D1
:101E7000D0B13F2306930F4B05930F4B04930222DF
:101E800004238DE80C000D4907940B22732303945F
:101E900002940B480AF040FB284600F019F9094A61
:101EA000094907480CF03AFE054809B030BD00BFAB
:101EB000300900200CEB010834800108ACEB01086C
:101EC00078090020E8090020FD1C000810B5202139
:101ED00004460CF029FE204610BD704703290BD89C
:101EE000DFE801F002040608FFF742BFFFF7B4BFC6
:101EF000FFF778BFFFF704BF0020704710B504213B
:101F000004460CF011FE204610BD0000004870474A
:101F1000BCFC000809207047004870470CEE01081F
:101F20000920704700487047B809002010B5FFF736
:101F30001FFF064C2060FFF78FFF6060FFF752FF26
:101F4000A060FFF7DDFEE06010BD00BFB809002013
:101F500038B50A4B0A4A18800A4B1A60FFF7DCFFB3
:101F60000546FFF7DFFF0446FFF7DAFF064B1D606B
:101F7000064B1C60064B188038BD00BFD8090020F6
:101F800070ED0108DC090020243800202C380020E6
:101F900028380020014B024A1A607047DC090020F3
:101FA00070ED010808B50146034B00B10121186826
:101FB00007F036FA012008BDC4370020032208B517
:101FC0000021012001F0AEFA074A106020B1002381
:101FD0001A46194601F0C7FA01210022084601F00D
:101FE000A1FA024B186008BDE0090020E4090020B6
:101FF000034800234FF0FF321946006801F079BB17
:10200000E0090020034800231A461946006801F041
:10201000AABA00BFE0090020034800231A46194667
:10202000006801F066BB00BFE009002007B5094861
:1020300002AA002342F8043D1946006801F012FB91
:10204000019B1BB1044B4FF080521A6003B05DF846
:1020500004FB00BFE009002004ED00E007B5094BD8
:10206000186860B102AA002342F8043D064901F055
:10207000F9FA019B1BB1054B4FF080521A6003B077
:102080005DF804FBE40900201000002004ED00E0EE
:1020900070B5084D084C00231A462946206801F007
:1020A00028FB2946206800234FF0FF32BDE870402E
:1020B00001F01FBB10000020E4090020FEE7FEE74E
:1020C0000149002001F016BEA51F000870477047A7
:1020D0007047FEE7084910F0030318BFC3F104037B
:1020E0000A6818BFC0181318044883423ABF104644
:1020F0000B604FF0FF30704714000020FC3B0020C5
:10210000FEE70000024B18680368DB68184700BF51
:10211000C43700201FB500F0B1FD01F06FF80023B7
:10212000032203930293019300920449044840F26E
:10213000B63201F095FB01F079FCFEE770FD000876
:1021400005210008704738B5044602F069FE0546CF
:1021500002F06CFE81B2A8B203F0BEF908B9012307
:10216000237138BD10B5082104460CF0DDFC204673
:1021700010BD7FB504790E4615465CB101A803F089
:10218000D7F99DF8043043B1BDF806303360BDF88F
:102190000A302B60204604B070BD1C46FAE7036885
:1021A0001B6C184703685B6A18477047704700004C
:1021B000034A044B13601A6842F400721A607047B5
:1021C000EC09002000B00240034B1B78002B40F2CA
:1021D000EF1018BF002070472C0A00202DE9F843AB
:1021E000414BB1F80C801B68CF8998680E7E03685C
:1021F0001B6A0D46984710282A7E6B6971D103F03F
:102200001F041F21C4EB042494FBF1F444EA02628E
:10221000C3F3C424C4EB0424C3F3451394FBF1F4C7
:1022200042EA0444C3EB03233F2293FBF2F344EA64
:102230000322DFF8C0E02D4C4FF0806CCEF888C050
:10224000022384F8393023684FF00009C3F8009066
:1022500023683F219960C3F81090C3F81890C3F821
:102260001C90C3F82490C3F83490A968D960204921
:10227000C3F8109041EA066122F07F4207EB08475D
:10228000D9611A625F64AA685A616A8A1028A2EB4F
:1022900008029A610CBF022101214FF07F4292FA9D
:1022A000A2F2B2FA82F2D2B296400E435E625A694C
:1022B000DA639A691A645A6A5A63CEF808C01A68CF
:1022C00022F4403242F400321A602268136843F468
:1022D0000C5313602268136843F001031360BDE8D8
:1022E000F88343EA0262A4E7C4370020EC09002027
:1022F0000900010000E100E010B540F6A821044605
:102300000CF012FC204610BD2DE9F3470E68042E98
:1023100080460C4600F0A080202E00F09D80A6F1A3
:10232000400257425741802E00F09880A6F58073F6
:102330005E425E415B4B1B68986803681B6A984766
:102340002368402B824600F09D8000F28980042B98
:1023500000F09180202B00F09580BAF1100F0CBF97
:102360004FF002094FF001090025E389A8F8A43ACB
:10237000DFF838814C4B4FF08062C3F8882040462C
:1023800003F0B1FDA289638AC8F8045045469B1A40
:10239000EB60C5F82C90238AA289BAF1100FA3EB49
:1023A00002030CBF4FF002084FF00108AB62284651
:1023B000C5F8088003F068FD0FB9002E35D0237EE4
:1023C000FF2B1FBF02232B63237E6B6304BF0023FD
:1023D0002B6306B3BAF1100F207E636958D103F066
:1023E0001F024FF01F0EC3F3C421C2EB022292FB67
:1023F000FEF242EA0062C1EB0121C3F3451391FBF7
:10240000FEF142EA0142C3EB03233F2193FBF1F3C8
:1024100042EA03236B63638AA2892448C5F81C80BF
:102420009B1AAB61002103F0CFFD01211F4803F08F
:10243000CBFD1D4B4FF080629A60E289A38907B9FA
:102440004EB30093A3680192616818481A4603F0DE
:1024500087FD02B0BDE8F087012767E7012669E73D
:10246000802B12D0B3F5807F7FF477AF4FF009094E
:102470004FF4003579E710280CBF4FF002094FF0F8
:102480000109F5E74FF00009F2E74FF00A09EFE71D
:1024900043EA0063BEE700926168A268034803F064
:1024A00030FDD6E7C437002000E100E0EC09002051
:1024B0002DE9F041374B1B680646986803680C46C7
:1024C0001B6A8AB09847E389A6F8A43A23681028C3
:1024D0000CBF4FF002084FF00108082B07460ED141
:1024E0000FCC03AD0FC594E80700336885E80700FB
:1024F0005B6C03A9304698470AB0BDE8F081264DD1
:10250000264B4FF08062C3F88820284603F0EBFC8E
:102510004FF44033A2896B60638AC5F82C809B1A04
:10252000EB600023AB62102FC5F808806369217E41
:102530002DD103F01F02C2EB02221F2092FBF0F507
:10254000C3F3C42245EA0165C2EB0222C3F345137B
:1025500092FBF0F245EA0245C3EB03233F2293FBD3
:10256000F2F345EA032501210B4803F02DFD0B4B47
:1025700009484FF080629A6003F086FCE28900927D
:10258000A389A2680448294603F0BBFCB4E743EAE8
:102590000165E8E7C4370020EC09002000E100E015
:1025A00070B5044626460C3000250F4B606025723E
:1025B000657246F8203B6022314607F05BF804F56F
:1025C0002A6275611C36B242FBD194F8A72AC4F87E
:1025D000A05A65F30002A4F8A45A84F8A65A84F815
:1025E000A72A204670BD00BF98FD0008012380F88F
:1025F000641080F865307047406803681B681847AE
:1026000000207047436B0BB10846184770474FF6E0
:10261000FF707047014B1868704700BF300A0020F8
:10262000034B702283F85A2383F85C23704700BF62
:1026300000E100E0044B4FF08062C3F888204FF0C7
:102640008052C3F88820704700E100E0034B4FF050
:1026500080629A604FF080529A60704700E100E01B
:102660007047000008B531B90A4B0B4A0B484FF4CC
:102670004371FFF745FD8163C2630949036400327A
:1026800018BF01220A700033064A18BF01231370D5
:1026900008BD00BFFDFD000864FF000835FE00080E
:1026A000C2370020C337002008B500F063FC0A4B96
:1026B0001B680222C3F810240122C3F81024D3F8A7
:1026C000082442F00102C3F80824D3F8082442F099
:1026D0000202C3F8082408BD34390020024B00224E
:1026E0001A7006F0E7BA00BF1800002010B50446C3
:1026F00006F0ECFA94F8473013B1024B01221A703D
:1027000010BD00BF1800002010B5044606F06EFE94
:1027100023682046D3F88430BDE81040184710B530
:10272000682104460CF000FA204610BD30B590F840
:10273000642090F830309A420F4B1A780DD05AB975
:102740000E4A0F490F4814880F4D0C8001881180E4
:102750002980048001221A7030BD002AFCD009486B
:10276000074A01881180054A074D14882C80118082
:1027700004800022EFE700BFBC370020B8370020FC
:10278000BE370020BA370020C03700200D4B1B7821
:10279000B3B10D4B0D481B68D3F8042422F0080296
:1027A000C3F804240A4A9162426A42F0010242627A
:1027B000084A1160D3F8042442F00802C3F8042444
:1027C000704700BF380A00203439002000680140FB
:1027D00084680140300A0020F8B51C4C9DF8185060
:1027E00023701B4C21601B4C2280541EA6B21F2E4E
:1027F00009D80124B44014F0803F174F174E09D177
:1028000014F00B0F17D1164B164A17484FF43971B5
:10281000FFF776FC3F883488D2087C4362438163AB
:102820007BB11144C16375B1114401640F4A137047
:102830000F4B1D70F8BD3C8862430732D2103488BC
:10284000ECE7C363EFE70564F0E700BF380A002058
:10285000300A00203A0A0020B8370020BA3700209A
:10286000E0FD000810FF000835FE0008C237002018
:10287000C337002003689B691847000070B5604D9E
:102880002B68D3F80C24D10732D501225D4CC3F854
:102890001024002000F048FD226892F856300133E1
:1028A00082F85630FFF7DAFB574B58491B781BB9B3
:1028B0002268002A40F098800A78002A00F0988068
:1028C000534E3178002940F093801BB120680028D6
:1028D00040F092804F4B002018604F4B1B88182B04
:1028E00038D100F077FB464804F045FE01233370F1
:1028F0002B68D3F80C24920740F181800222C3F8A0
:102900001024454B434D1B88444C4549454A182BE0
:1029100043D12B680BBBD4F8043423F00803C4F86C
:102920000434414B09681B885B0803EB43030B44E9
:1029300093623E4B01265E6200F05EFBD4F80434E5
:1029400043F00803C4F804342E602D48BDE87040FD
:1029500004F011BE00F02AFBC5E7D4F8043423F0DC
:102960000803C4F804340B689362304B01225A62A6
:1029700000F030FBD4F8043443F00803C4F8043406
:10298000002000F0D7FC224B00221A701D4B186863
:10299000002834D0FFF76EFF70BD28680130286032
:1029A000D4F80434032823F00803C4F8043412DCF8
:1029B0001D4B09681B885B0800FB031393621B4BCC
:1029C00001225A6200F0F2FAD4F8043443F008030A
:1029D000C4F80434B9E70B689362144B01225A62BD
:1029E000002000F0E3FAC5E7087882F8460063E7C4
:1029F000002000F09FFC7BE706F0F8FC6AE770BD62
:102A000034390020C4370020380A00201800002084
:102A10003C0A0020340A00203A0A0020006C0140E1
:102A2000300A002084680140BE3700200068014061
:102A3000064B5A68920707D502229A60044B1B681E
:102A4000586803685B691847704700BF00B00240D0
:102A5000C43700204068704741607047054A1368DA
:102A600043F080731360044A136843F0010313605A
:102A7000704700BFFCED00E0001000E0521A02EBCE
:102A80005302B2FBF3F07047014B1868704700BF68
:102A9000041000E0704710B50C2104460CF044F817
:102AA000204610BD10B5036804461B6931B1984734
:102AB000A26863689B1A1844606010BD9847A060C4
:102AC00010BD70477047000008B500F02EF8024BAB
:102AD00000221A6008BD00BF3D0A0020F8B50F466D
:102AE00000F027F80C4A937855781478D370C6B262
:102AF00013F001009570547016700BD015F00100A2
:102B000008D014F0010005D0F30702D4012038707A
:102B1000F8BD0020F8BD00BF3D0A002010B504211B
:102B200004460CF001F8204610BD0021084602F0D2
:102B3000BBB8002002F0F2B870470120704758205F
:102B40007047582303FB010008307047582303FBEC
:102B5000010008307047012070474FF4FE60704755
:102B60004FF4FE6303FB0100083070474FF4FE632F
:102B700003FB0100083070470120704710207047A8
:102B800000EB01100830704700EB0110083070476F
:102B90000846FEF7E5BD000010B5034B0360044690
:102BA00005F08CFE204610BD6800010810B50446F3
:102BB000FFF7F2FF204660210BF0B6FF204610BD64
:102BC00010B5034B0360044605F078FE204610BDA7
:102BD0003400010810B50446FFF7F2FF20464FF419
:102BE000FF610BF0A1FF204610BD000010B5034BA4
:102BF0000360044605F062FE204610BD0000010897
:102C000010B50446FFF7F2FF204618210BF08CFFA9
:102C1000204610BD10B5084B0360044600F62400A2
:102C2000FFF7BAFF04F12C00FFF7CAFF04F114000C
:102C3000FFF7DCFF204610BD9C00010810B50446DC
:102C4000FFF7E8FF20464FF41E610BF06DFF2046B2
:102C500010BD10B5042104460BF066FF204610BDE0
:102C600008B502F0BFFF044B1B781BB1BDE808405C
:102C700001F0D2BA08BD00BF002000202DE9F04FBE
:102C8000DFF8EC829BB002F093FFD8F8403043F0BD
:102C90008053C8F84030D8F8403003F08053069392
:102CA000A74B1A6842F440421A601B6803F4404381
:102CB00007934FF4800314934FF4B47316930723D0
:102CC0004FF001094FF0020A1893082506230DA8BA
:102CD000CDF83490CDF83890CDF84CA0CDF85CA06C
:102CE0001993159505F0D8F800B1FEE704F0DAFC69
:102CF00000B1FEE70F2308930A904FF4A0534FF45E
:102D00008056052108A8CDF824A00B930C9604F05A
:102D100015FD044600B1FEE702F0A0FBD8F8303004
:102D2000884F43F48053C8F83030D8F8303003F47B
:102D30008053059302F0DAF902F052F95B2002F0B9
:102D4000BFFF02F03DF802F097F87F4840F277139A
:102D5000036103230393C3610560846204F078FE7A
:102D60007A4A3A60384604F0EEFA7949C7F80C908E
:102D70004FF0040B7D22384681E804048C60C7F8CC
:102D800008B004F037FA7349734D0C604FF4C87201
:102D90008A601022CA60384605224C618C61CC6181
:102DA0000C610C624C62C1F828904A6004F0FAFA97
:102DB0004FF400634FF480704FF400714FF4806261
:102DC00085E80F004FF400526A614FF48042AA6117
:102DD0004FF48032EA614FF400322E612A625F4E76
:102DE0004FF4802229466A6238464FF40022AA62D4
:102DF00004F05EFB304603F094FE4FF4F172B262D1
:102E00004FF4C972726240F2E312326340F29312DD
:102E1000F2623046524A3260C6F81490C6F81890F2
:102E2000C6F81CA0C6F820A086F8344086F83540C5
:102E300086F836407460B460F460346103F0F2FDEB
:102E4000384604F081FB4946204602F05FFC2946E3
:102E500038462C606C60AC60EC602C616C61AC61DD
:102E6000EC612C626C62AC6204F022FB594638467D
:102E700004F056FBD8F830203A4842F40072C8F803
:102E80003020D8F83020039B109302F400720DA973
:102E90000D2308921193CDF834B0CDF838A00F94DB
:102EA00003F002F9384604F066FB0D940F9401F02C
:102EB000BDFF4FF040431693FF23129310901394DD
:102EC0008DF864408DF865408DF8664001F0AEFFE6
:102ED000189001F0A5FF4FF4C06314934008072336
:102EE00015930E90CDF8449001F09AFF40082246C9
:102EF0000DA91790304603F020FE204601F09CFFFC
:102F0000194B01932A23009321465B463922384608
:102F100004F070FB154B01932B23214600933922BB
:102F20005B46384604F066FB01F07AFF2246014614
:102F3000304603F02BFE00F0F5F91BB0BDE8F08F32
:102F40000070004034390020F4140020006C01406F
:102F5000F41F002094140020C01400208C3800209E
:102F60000068014000240240260000203E000020AE
:102F70000038024037B50B4A0B4C0223152513705D
:102F8000557001924422009200213922204604F01B
:102F900031FB0021009135232A46204604F0FDFA3A
:102FA00003B030BDF11F00203439002007B5074BB6
:102FB00003EB80002A23019000933922042300218F
:102FC000034804F017FB03B05DF804FB2E0000205B
:102FD0003439002007B5064B01932A230093392288
:102FE00004230021034804F005FB03B05DF804FB53
:102FF000260000203439002007B5064B01932A2310
:103000000093392204230021034804F0F3FA03B0AB
:103010005DF804FB2A000020343900202DE9F74335
:10302000614E3578BFF35B8F15F001058046894608
:1030300017461C4656D13046FFF749F8002851D0B4
:10304000A3B25A4CBDF82800C4F80480012284F8C9
:10305000452084F8462084F8542084F85720544AA8
:10306000C4F80890E7602561656125836583A583C1
:10307000E58325846584A58484F82650A562A5850A
:103080006563A563E563256484F8445084F855506E
:1030900084F8565084F8585084F8595084F85A509F
:1030A00084F85B5084F85C5025661460414A84F8CB
:1030B00065501380404A1080404A1570404A834250
:1030C0001380404AACBF00230123108084F83030C5
:1030D00030463D4B2360FEF7FBFF3C4A3C4920460F
:1030E0000BF01CFD31483B4F05F090FFFEF70EFF43
:1030F0000446FEF70FFF0D9B009301460C9B0B9AB5
:1031000020460AF0EDF8344B344A1A600020FEF7EE
:103110001FFF33480AF04EF83B78BFF35B8FDB07A5
:1031200038D43846FEF7D3FF002833D02D4E2E4B2F
:10313000336006F6840806F1140006F12C0506F645
:1031400024047060B560F460C6F8108005F0B8FB28
:10315000264B7361284605F0B3FB254BF3622046EE
:1031600005F0AEFB234BC6F82438324606F6D411E0
:103170004046FDF7DBFA06F6D410FDF774F9404639
:10318000FEF7EEFA3846FEF7A3FF104A1A4930461A
:103190000BF0C4FC08F016F90146044805F078FE6F
:1031A000024803B0BDE8F083440A0020480A00202A
:1031B000C4370020B8370020BA370020BC370020C1
:1031C000BE370020C037002070FE0008E80900204C
:1031D00061260008B00A002030380020F01F0020CF
:1031E0001C000020B40A00209C0001080000010817
:1031F0003400010868000108152C0008F0B585B0FE
:1032000000254FF4F0730395029501950093144A3D
:10321000144915484FF44873FFF700FF134B01267C
:103220001E70134B1A880368009604465F6F4FF0B8
:1032300040412B46B8470F4B84F85850636184F8DF
:10324000465002230C4D84F85430282384F845302E
:103250002846FFF703FC256184F85C6005B0F0BDEB
:10326000301500202000002038150020002000200C
:1032700024000020E01F0020E41F002038B5194C76
:10328000194D1A491A4822460BF048FC2846FFF708
:1032900087F92246174928460BF040FC1648174B81
:1032A000174903600025224605710BF037FC1548CD
:1032B000154B4560224685601449154D03600BF09F
:1032C0002DFC2246134914480BF028FC134B2B60AD
:1032D0002846FFF7F9FB224628461149BDE8384049
:1032E0000BF01CBCE809002038150020DB1E00088C
:1032F0001C000020AD2100083015002080FD0008D2
:1033000045210008E41F0020BCFF0008952A0008A2
:10331000E01F0020392B000820000020E4FF0008F7
:10332000C52A000870470000014B01221A5470475B
:1033300001200020014B00221A5470470120002078
:10334000704700F1080343604FF0FF32C360036130
:103350000023826003607047002303617047436865
:103360004B609A688A609A68516099600861036846
:103370000133036070470A68531C30B50AD10369F2
:103380005A684A6091608B60596008610368013334
:10339000036030BD00F108035C682568AA42EFD3E2
:1033A0002346F9E7436882689A60836842685A60F6
:1033B00003695A68904204BF82685A600022026121
:1033C000186801381860704738B51546026C044615
:1033D0004AB905681DB9406800F0E0FD6560A36B5F
:1033E0000133A36338BD65B980680BF0D9FBA368CE
:1033F000226C13446268A3609342F0D32368A360F5
:10340000EDE7C0680BF0CCFB236CE26821685B42FF
:103410001A448A42E2603EBF62689B18E360022D54
:10342000DDD1A36B002BDAD0A36B013BA363D6E7FE
:10343000034630B41C6808465CB1D9681A6C5D68F4
:103440001144A942D96028BFDC60D96830BC0BF0B8
:10345000A7BB30BC704738B5044600F099FE04F1B4
:103460002405A36C002B12DC4FF0FF33A36400F0A3
:10347000A1FE00F08DFE04F11005636C002B13DC3F
:103480004FF0FF336364BDE8384000F093BE636AD9
:10349000002BE9D0284600F0C9FC08B100F03EFD41
:1034A000A36C013BA364DCE72369002BE8D028462A
:1034B00000F0BCFC08B100F031FD636C013B6364BB
:1034C000DBE738B50D46044610B900F04BFEFEE7C9
:1034D00000F05EFE206CE36B2268A2604343D118CB
:1034E0001B1A13446160E36000214FF0FF33A163B6
:1034F0006364A3646DB923693BB104F1100000F06B
:1035000095FC012801D100F021FE00F053FE0120BE
:1035100038BD04F11000FFF714FF04F12400FFF799
:1035200010FFF2E7F8B50E461746054670B1502079
:1035300000F058FD044648B106FB05F0013000F0EC
:1035400051FD206028B9204600F0AAFD00F00AFED7
:10355000FEE7E563266401212046FFF7B2FF84F809
:103560004D702046F8BD2DE9F04385B089460192A3
:103570001F46044610B900F0F5FDFEE7002965D1AD
:10358000036C002B62D000F0EDFDFEE7019D1DB93C
:1035900000F010FE00204AE016B902A800F080FCFE
:1035A00000F008FE00F06CFA00F0F2FD636C0133ED
:1035B00008BFC4F84480A36C013308BFC4F8488036
:1035C00000F0F8FD01A902A800F07AFCC0BB00F0F1
:1035D000DFFDA66BE56B00F0EDFDAE422AD101994F
:1035E00004F1100000F0FCFB2046FFF734FF00F070
:1035F000E5FA08B900F0AAFD012600F0C9FDA26BAA
:10360000E36B9A4201D3022FC0D13A464946204685
:10361000FFF7DAFE636A3BB104F1240000F006FC18
:10362000012801D100F092FD00F0C4FD012005B099
:10363000BDE8F0832046FFF70EFF00F0BFFADBE79E
:103640002046FFF708FF00F0B9FAA3E7022F02D1E6
:10365000E36B012B03D100264FF00008CDE700F00B
:1036600081FDFEE72DE9F0410E4690461D460446D9
:1036700010B900F077FDFEE7D9B9036CCBB100F0CB
:1036800071FDFEE704F1240000F0D0FB60B3B8F157
:10369000000F29D00124C8F80040384600F086FD0C
:1036A0002046BDE8F081A36C0133A3641CE0002434
:1036B000F3E7022D02D1E36B012B17D100F026FEB8
:1036C00000F050FDA26BE36B9A42074601D3022D36
:1036D000EDD12A4631462046FFF776FEA36C013332
:1036E000E1D1636A002BCDD10124D6E700F03AFD89
:1036F000FEE72DE9F04385B00E4601929946044657
:1037000010B900F02FFDFEE711B9036C002B7CD13E
:1037100000274FF0000800F03BFDA36B53B3314688
:103720002046E568FFF784FEB9F1000F17D1A36BBF
:10373000013BA363236813B900F0F6FB60602369C3
:103740003BB104F1100000F071FB012801D100F041
:10375000FDFC00F02FFD012005B0BDE8F083636A99
:10376000E560002BF5D004F1240000F05FFB002899
:10377000EFD0ECE7019D1DB900F01CFD0020EBE748
:1037800017B902A800F08CFB00F014FD00F078F9E6
:1037900000F0FEFC636C013308BFC4F84480A36CE6
:1037A000013308BFC4F8488000F004FD01A902A855
:1037B00000F086FB18BB00F0EBFCA56B00F0FAFCF8
:1037C000BDB9236833B900F0E3FC606800F0B2FBD8
:1037D00000F0F0FC019904F1240000F001FB204608
:1037E000FFF739FE00F0EAF908B900F0AFFC012755
:1037F00091E72046FFF72FFE00F0E0F9F7E72046BB
:10380000FFF729FE00F0DAF9B8E700F0ABFCFEE7BD
:1038100010B50E4B1A6850600D4A1268904204466B
:1038200007D20C4A10681968BDE810400431FFF750
:10383000A2BD094A106819680431FFF79CFD074BC7
:103840001A68944238BF1C6010BD00BF08200020D9
:10385000FC200020102000200C200020440000202C
:103860002DE9F84F0AAE0F4615469A4696E84009EC
:10387000814610B900F076FCFEE7042E02D900F074
:1038800071FCFEE7502000F0ADFB044670B1BBF1C7
:10389000000F03D1A80000F0A5FB8346C4F830B0A8
:1038A000BBF1000F06D1204600F0FAFB4FF0FF30CD
:1038B000BDE8F88FAD002A46A52158460BF00AFA5C
:1038C000236B043D1D4425F007057B1E04F13402E3
:1038D000093793F9011002F8011B13F9011F09B10F
:1038E0009F42F6D14FF0000B271D384684F83DB0BB
:1038F000E662A664FFF730FD04F11800FFF72CFD27
:10390000C6F105032461A3616462C4F84CB0524659
:103910004946284600F0FAFB2060B8F1000F01D0BC
:10392000C8F8004000F034FC2F4B304D1A68DFF827
:10393000F08001321A602A68002A4BD12C601B6883
:10394000012B27D12A48DFF8DCA0DFF8DC90FFF755
:10395000F8FC2848FFF7F5FC2748FFF7F2FC27485A
:10396000FFF7EFFC2648FFF7ECFC5046FFF7E9FCB9
:103970004846FFF7E6FC2348FFF7E3FC2248FFF741
:10398000E0FC2248FFF7DDFC214BC3F800A0214BEF
:10399000C3F80090204A1368013313601F4A236460
:1039A0001168E36A8B4288BF1360114A142000FB40
:1039B00003203946FFF7D3FC00F0FCFBD8F80030B9
:1039C0002BB12B68DB6A9E4201D900F0BFFB0120BE
:1039D000BDE8F88FD8F80030002BDBD12B68DB6A0C
:1039E0009E4228BF2C60D5E77820002008200020C8
:1039F00014200020282000203C20002050200020FF
:103A000064200020BC200020E8200020D4200020DA
:103A10000C20002010200020842000208C2000207A
:103A2000D020002090200020A420002030B585B0B8
:103A300000240394029401940094234640220C49EC
:103A40000C48FFF70DFF012805460AD100F08AFB5C
:103A5000094B1D60094B1C6005B0BDE8304000F00B
:103A600001BC10B900F07EFBFEE705B030BD00BF21
:103A7000BC0001088D3C0008D0200020FC20002064
:103A8000024A136801331360704700BF8020002092
:103A90002DE9F84F3E4B1B68002B41D13D4B1A6876
:103AA00001321A601D68002D44D13B4B1A68126820
:103AB00012B100F057FBFEE7384A19681068186029
:103AC000116037490A6801320A601A681168354A7C
:103AD00069B31B68DB68DB685B682AE006F1040AEF
:103AE0005046FFF75FFCB16A19B106F11800FFF705
:103AF00059FCF06AD9F800102B4B88424FF01402A1
:103B000088BFC9F80000514602FB0030FFF727FCD0
:103B10003868F16AC26A914228BF4FF0010B14E085
:103B2000224A1368013313604FF0000B27E04FF077
:103B3000FF3313601B4C1E4F23689D424FF0000B58
:103B400013D3DFF85480DFF87090D8F800201268A3
:103B50001AB94FF0FF32226007E0D8F80020D2688F
:103B6000D66871688D42B9D221603A680E4BD16A2D
:103B700014224A439A58022A28BF4FF0010B0D4ADB
:103B80001268002A18BF4FF0010B5846BDE8F88FA5
:103B900080200020FC2000200C200020102000208D
:103BA000B820002044000020142000207C200020A9
:103BB00008200020002100208C2000202DE9F04169
:103BC0002A4C236813B900F0CDFAFEE700F0E0FAC2
:103BD0002368013B236023682BB1002400F0EAFA3C
:103BE0002046BDE8F081224B1B68002BF5D0214D0B
:103BF000214E1DE0EB68DC68271D04F11800FFF77B
:103C0000D1FB3846FFF7CEFBE36A326814209342BB
:103C100000FB0380394688BF3360FFF7A0FB174BDA
:103C2000E26A1B68DB6A9A4204D3154B01221A60D0
:103C3000DFF854802B68002BDCD1124C23688BB941
:103C40000F4B1C68012CC8D100F080FAC6E7FFF7C3
:103C50001FFF00B12E602368013B23602368002B07
:103C6000F5D1EDE7064D0126F8E700BF80200020E2
:103C700078200020BC2000208C200020082000207C
:103C8000002100207C2000201420002008B5154EC3
:103C9000154C236843B9154B1B68012B01D900F063
:103CA00055FAFEF70DFAF3E7FFF7EAFE3568FFF77E
:103CB00085FF002DEDD000F06BFAF368DD68281D5C
:103CC000FFF770FB0A4A1368013B13602368013B4E
:103CD000236000F06FFA286B00F0E2F9284600F04C
:103CE000DFF9D6E7E82000208820002014200020FB
:103CF0007820002038B50D4640B9054B1C6800F00F
:103D000047FAE564BDE8384000F054BA0446F6E7E7
:103D10000820002008B9044B1868C36C0BB1084692
:103D200018471846704700BF0820002070B5264B82
:103D30001A68264B12B101221A6070BD244C1A6019
:103D400020680121FFF7E6FF2268236812681B6BD9
:103D50009A4204D8206821683431FEF7AFF923680D
:103D60001C49186B14220AF0EBFE20B12068216870
:103D70003431FEF7A3F9184A184914231646086887
:103D800058431058B8B109684B43D01808334568F8
:103D90006D68456013449D4204BF6B684360142303
:103DA00003FB01614B68DB68236020680021BDE8EC
:103DB0007040FFF7AFBF086810B900F0D3F9FEE715
:103DC000086801380860DAE7802000200021002020
:103DD00008200020A8000108142000208C200020CA
:103DE00038B50D4610B900F0BDF9FEE70C4C21685E
:103DF0001831FFF7C0FA20680430FFF7D3FA6B1CC4
:103E000006D1216807480431BDE83840FFF7A7BA5A
:103E1000054B18682844BDE83840FFF7F9BC00BFDF
:103E200008200020D4200020FC20002038B5C368E2
:103E3000DC6814B900F096F9FEE704F1180528468D
:103E4000FFF7B0FA104B1B68DBB9251D2846FFF7BA
:103E5000A9FA0E4AE36A11688B4288BF13600C4AC4
:103E60001420294600FB0320FFF779FA094BE26A88
:103E70001B68DB6A9A4223BF074B012018600020B1
:103E800038BD29460548EFE7802000208C2000201F
:103E9000142000200820002000210020BC20002049
:103EA00008B510B900F05EF9FEE7034B1B6803602C
:103EB000024B1B68436008BDB8200020FC20002096
:103EC00038B50D46044610B900F04CF9FEE711B9BB
:103ED00000F048F9FEE700F05BF90E4B19682B681B
:103EE0005A1C10D00C4A206812689042626801D0B7
:103EF00091420DD2881A83420AD95B1A13442B606F
:103F00002046FFF7CDFF002400F054F9204638BDCD
:103F10000124F9E7FC200020B8200020014B0122F9
:103F20001A60704700210020014B1868704700BFDD
:103F300008200020F8B5044640B3154DC36A2A682E
:103F4000D26A934222D22A68124ED26AC2F1050284
:103F50008261142202FB036342699A4213D1071D56
:103F60003846FFF71FFA2B680B4ADB6A1168E362D9
:103F70008B4200D913601420394600FB0360BDE872
:103F8000F840FFF7ECB92B68DB6AC362F8BD00BFED
:103F900008200020142000208C20002038B5044682
:103FA000D0B1C26A836C9A4216D0051D2846FFF72D
:103FB000F9F9A36CE362C3F10502A261074A116833
:103FC0008B4288BF1360064A1420294600FB032059
:103FD000BDE83840FFF7C3B938BD00BF8C200020D2
:103FE0001420002070B50446FFF74AFD27480168F9
:103FF00071B9274B274A23F0070313605160264A03
:1040000041F2745582E8220083E824000123036012
:104010002CB1083463071CBF24F007040834621E67
:1040200041F272539A4207D81A4A136859688C426F
:1040300004D819498B4207D100251EE019680029D0
:10404000F7D01A460B46F1E71968156811605968F0
:10405000091B102905F108050AD91A1951605C607D
:1040600056680C4908684468A6420DD810600A607A
:104070000A495B680A68D21A0A60FFF79FFD0DB90A
:10408000FEF71DF8284670BD0146EBE78836002094
:104090000C2100208C3600208036002048000020B3
:1040A00038B50446C8B1A0F10805FFF7E9FC54F89B
:1040B000040C0A4B1A68516888420CD844F8082C42
:1040C000074A1D6054F8043C11680B441360BDE8B6
:1040D0003840FFF773BD1346ECE738BD8C3600203F
:1040E0004800002003480068006880F3088862B632
:1040F00000DF00BF08ED00E0DFF80C00016841F4CC
:10410000700101607047000088ED00E04FF080739F
:1041100000E90A00054B40F80C3C6FF0020340F840
:10412000202C40F8243C4438704700BF75410008FB
:10413000054B19680868B0E8F04F80F309884FF024
:10414000000080F31188704708200020044B4FF0D6
:1041500080521A60BFF34F8FBFF36F8F704700BF5D
:1041600004ED00E0EFF311804FF4A07181F31188AA
:104170007047002008B5054B1B68013302D0FFF7DC
:10418000F1FFFEE7FFF7EEFFFEE700BF4C00002067
:1041900008B5FFF7E7FF044A136801331360BFF364
:1041A0004F8FBFF36F8F08BD4C00002080F3118844
:1041B00070470000034B18680138186008B9FFF712
:1041C000F5BF70474C000020EFF30980114B1A68CF
:1041D0001EF0100F08BF20ED108A20E9F04F10608C
:1041E0004DF8043D4FF4A07080F31188FFF79EFD59
:1041F0004FF0000080F3118808BC19680868B0E827
:10420000F04F1EF0100F08BFB0EC108A80F3098841
:10421000704700BF0820002008B5FFF7A3FFFFF795
:1042200037FC18B1044B4FF080521A600020BDE8F3
:104230000840FFF7BBBF00BF04ED00E0064B4FF4A2
:104240007A721B68B3FBF2F3044A013B1360044B20
:1042500007221A60704700BF8800002014E000E0C9
:1042600010E000E013B5234B1A78D2B20192FF227E
:104270001A701B78204ADBB28DF803309DF80330AA
:1042800003F0400313701D4B07221A6000219DF8B4
:104290000300000602F1FF3423D401B11A601A684A
:1042A000120202F4E0621A60019B124ADBB2137040
:1042B000134B1A6842F47C021A601A6842F07C427E
:1042C0001A60FFF7BBFF0F4B00221A60FFF714FFC5
:1042D0000D4A136843F040431360FFF703FFFFF7F5
:1042E00049FF9DF803205200D2B28DF8032001212E
:1042F0002246CCE700E400E0943600209836002007
:1043000020ED00E04C00002034EF00E008B5EFF3B2
:1043100005830F2B08D90A4A9B5C0A4A12789A42F5
:1043200002D9FFF71FFFFEE7074B084A1B68126818
:1043300003F4E063934202D9FFF714FFFEE708BDE0
:10434000F0E300E0943600200CED00E09836002009
:10435000684620F007018D4601B5FEE7684620F06B
:1043600007018D4601B5FEE7684620F007018D463E
:1043700001B5FEE7684620F007018D4601B5FEE76E
:10438000684620F007018D4601B5FEE7684620F03B
:1043900007018D4601B5FEE7684620F007018D460E
:1043A00001B5BDE80140854670470000684620F031
:1043B00007018D4679B5134A134B14498B4213D329
:1043C000134B144A0021934213D3134E134CA41BD6
:1043D000A4100025A5420FDB04F0C4F9FDF79AFEF6
:1043E000BDE879408546704752F8040F43F8040B46
:1043F000E4E743F8041BE6E756F825309847013513
:10440000E8E700BF30EE010800000020D0080020DF
:10441000D0080020FC39002020EE01082CEE010815
:10442000684620F007018D4601B5FFF7B5FFBDE8EE
:10443000014085467047684620F007018D4601B56A
:10444000FFF7AAFFBDE8014085467047684620F0A7
:1044500007018D4601B5FFF79FFFBDE80140854686
:104460007047684620F007018D4601B5FFF794FFBD
:10447000BDE8014085467047684620F007018D463B
:1044800001B5FFF789FFBDE80140854670476846E2
:1044900020F007018D4601B5FFF77EFFBDE8014022
:1044A00085467047684620F007018D4601B5FFF745
:1044B00073FFBDE8014085467047684620F007015C
:1044C0008D4601B5FFF768FFBDE80140854670479E
:1044D000684620F007018D4601B5FFF75DFFBDE896
:1044E000014085467047684620F007018D4601B5BA
:1044F000FFF752FFBDE8014085467047684620F04F
:1045000007018D4601B5FFF747FFBDE8014085462D
:104510007047684620F007018D4601B5FFF73CFF64
:10452000BDE8014085467047684620F007018D468A
:1045300001B5FFF731FFBDE8014085467047684689
:1045400020F007018D4601B5FFF726FFBDE80140C9
:1045500085467047684620F007018D4601B5FFF794
:104560001BFFBDE8014085467047684620F0070103
:104570008D4601B5FFF710FFBDE801408546704745
:10458000684620F007018D4601B5FFF705FFBDE83D
:10459000014085467047684620F007018D4601B509
:1045A000FFF7FAFEBDE8014085467047684620F0F7
:1045B00007018D4601B5FFF7EFFEBDE801408546D6
:1045C0007047684620F007018D4601B5FFF7E4FE0D
:1045D000BDE8014085467047684620F007018D46DA
:1045E00001B5FFF7D9FEBDE8014085467047684632
:1045F00020F007018D4601B5FFF7CEFEBDE8014072
:1046000085467047684620F007018D4601B5FFF7E3
:10461000C3FEBDE8014085467047684620F00701AB
:104620008D4601B5FFF7B8FEBDE8014085467047ED
:10463000684620F007018D4601B5FFF7ADFEBDE8E5
:10464000014085467047684620F007018D4601B558
:10465000FFF7A2FEBDE8014085467047684620F09E
:1046600007018D4601B5FFF797FEBDE8014085467D
:104670007047684620F007018D4601B5FFF78CFEB4
:10468000BDE8014085467047684620F007018D4629
:1046900001B5FFF781FEBDE80140854670476846D9
:1046A00020F007018D4601B5FFF776FEBDE8014019
:1046B00085467047684620F007018D4601B5FFF733
:1046C0006BFEBDE8014085467047684620F0070153
:1046D0008D4601B5FFF760FEBDE801408546704795
:1046E000684620F007018D4601B5FFF755FEBDE88D
:1046F000014085467047684620F007018D4601B5A8
:10470000FFF74AFEBDE8014085467047684620F045
:1047100007018D4601B5FFF73FFEBDE80140854624
:104720007047684620F007018D4601B5FFF734FE5B
:10473000BDE8014085467047684620F007018D4678
:1047400001B5FFF729FEBDE8014085467047684680
:1047500020F007018D4601B5FFF71EFEBDE80140C0
:1047600085467047684620F007018D4601B5FFF782
:1047700013FEBDE8014085467047684620F00701FA
:104780008D4601B5FFF708FEBDE80140854670473C
:10479000684620F007018D4601B5FFF7FDFDBDE835
:1047A000014085467047684620F007018D4601B5F7
:1047B000FFF7F2FDBDE8014085467047684620F0EE
:1047C00007018D4601B5FFF7E7FDBDE801408546CD
:1047D0007047684620F007018D4601B5FFF7DCFD04
:1047E000BDE8014085467047684620F007018D46C8
:1047F00001B5FFF7D1FDBDE8014085467047684629
:1048000020F007018D4601B5FFF7C6FDBDE8014068
:1048100085467047684620F007018D4601B5FFF7D1
:10482000BBFDBDE8014085467047684620F00701A2
:104830008D4601B5FFF7B0FDBDE8014085467047E4
:10484000684620F007018D4601B5FFF7A5FDBDE8DC
:10485000014085467047684620F007018D4601B546
:10486000FFF79AFDBDE8014085467047684620F095
:1048700007018D4601B5FFF78FFDBDE80140854674
:104880007047684620F007018D4601B5FFF784FDAB
:10489000BDE8014085467047684620F007018D4617
:1048A00001B5FFF779FDBDE80140854670476846D0
:1048B00020F007018D4601B5FFF76EFDBDE8014010
:1048C00085467047684620F007018D4601B5FFF721
:1048D00063FDBDE8014085467047684620F007014A
:1048E0008D4601B5FFF758FDBDE80140854670478C
:1048F000684620F007018D4601B5FFF74DFDBDE884
:10490000014085467047684620F007018D4601B595
:10491000FFF742FDBDE8014085467047684620F03C
:1049200007018D4601B5FFF737FDBDE8014085461B
:104930007047684620F007018D4601B5FFF72CFD52
:10494000BDE8014085467047684620F007018D4666
:1049500001B5FFF721FDBDE8014085467047684677
:1049600020F007018D4601B5FFF716FDBDE80140B7
:1049700085467047684620F007018D4601B5FFF770
:104980000BFDBDE8014085467047684620F00701F1
:104990008D4601B5FFF700FDBDE801408546704733
:1049A000684620F007018D4601B5FFF7F5FCBDE82C
:1049B000014085467047684620F007018D4601B5E5
:1049C000FFF7EAFCBDE8014085467047684620F0E5
:1049D00007018D4601B5FFF7DFFCBDE801408546C4
:1049E0007047684620F007018D4601B5FFF7D4FCFB
:1049F000BDE8014085467047684620F007018D46B6
:104A000001B5FFF7C9FCBDE801408546704768461F
:104A100020F007018D4601B5FFF7BEFCBDE801405F
:104A200085467047684620F007018D4601B5FFF7BF
:104A3000B3FCBDE8014085467047684620F0070199
:104A40008D4601B5FFF7A8FCBDE8014085467047DB
:104A5000684620F007018D4601B5FFF79DFCBDE8D3
:104A6000014085467047684620F007018D4601B534
:104A7000FFF792FCBDE8014085467047684620F08C
:104A800007018D4601B5FFF787FCBDE8014085466B
:104A90007047684620F007018D4601B5FFF77CFCA2
:104AA000BDE8014085467047684620F007018D4605
:104AB00001B5FFF771FCBDE80140854670476846C7
:104AC00020F007018D4601B5FFF766FCBDE8014007
:104AD00085467047684620F007018D4601B5FFF70F
:104AE0005BFCBDE8014085467047684620F0070141
:104AF0008D4601B5FFF750FCBDE801408546704783
:104B0000684620F007018D4601B5FFF745FCBDE87A
:104B1000014085467047684620F007018D4601B583
:104B2000FFF73AFCBDE8014085467047684620F033
:104B300007018D4601B5FFF72FFCBDE80140854612
:104B40007047684620F007018D4601B5FFF724FC49
:104B5000BDE8014085467047684620F007018D4654
:104B600001B5FFF719FCBDE801408546704768466E
:104B700020F007018D4601B5FFF70EFCBDE80140AE
:104B800085467047684620F007018D4601B5FFF75E
:104B900003FCBDE8014085467047684620F00701E8
:104BA0008D4601B5FFF7F8FBBDE80140854670472B
:104BB000684620F007018D4601B5FFF7EDFBBDE823
:104BC000014085467047000070B52D4C88B02046E6
:104BD00001F07EFE054600284FD12A4A2A4B2B4E73
:104BE000A06084E80C004FF48043E0606061A06145
:104BF000E06120622361336B43F002033363336B64
:104C0000059003F002030193019B21484FF4807348
:104C10000393122304930223069303A90423079307
:104C200001F042FA4FF4007303A91948039301F00D
:104C30003BFA336C43F400133364336C03F4001316
:104C40000293029B336A43F400133362336A23F402
:104C5000001333622A4605211F2000F0F1FF1F20B8
:104C600001F022F82A460521202000F0E9FF20204B
:104C700001F01AF8204601F053FC08B070BD00BFE7
:104C80009C36002000540040801A06000038024084
:104C90000004024008B5034801F0B5FCBDE8084037
:104CA000FFF792BF9C36002010B5194B1A6B42F0EB
:104CB00001021A631B6B86B003F001030093009B93
:104CC00069B90123019302230493124B02910391CA
:104CD00053F8200001A901F0E7F906B010BD012941
:104CE000FBD1022304930C4B02930A4B019153F81E
:104CF0002000002401A9039401F0D6F922460F21D7
:104D0000062000F09DFF062000F0CEFFE5E700BF83
:104D100000380240500000200000111008B5034B7D
:104D2000012153F8200001F0ABFA08BD500000202B
:104D3000FFF74ABF10B586B006AC642304F8012D16
:104D4000029301230A46019301460094034801F0AF
:104D500071FC08B1FFF79EFF06B010BD9C36002025
:104D60007FB506AA002302F8013D4FF47A7302933F
:104D700001238DE80C000A460146054801F0CCFCF1
:104D800008B1FFF787FF9DF8170007B05DF804FB37
:104D90009C3600201FB54FF47A748DE81C000A463B
:104DA00001230146044801F0B7FC044608B1FFF7AF
:104DB00071FF204604B010BD9C36002000F020BFDB
:104DC00070B5154B154C1A6B42F080021A631B6BC1
:104DD00086B003F080030093009B1123802502938B
:104DE0000026032301A9204604930195039601F0B0
:104DF0005BF932462946204601F048FA142000F0BB
:104E0000FFFE01222946204601F040FA0A2000F068
:104E1000F7FE06B070BD00BF00380240001C024023
:104E2000014B1868704700BF54000020014B186800
:104E3000704700BF58000020014B1860704700BF4A
:104E4000D8360020012807B503460AD84A780B78DF
:104E5000084800920021152202F09FFB03B05DF884
:104E600004FB01910A5C009200213922014802F002
:104E7000C1FBF3E7343900201FB5274B5A6C42F0D1
:104E800080625A645A6C02F080620192019A5A6AF6
:104E900042F080625A625A6A22F080625A621A6B49
:104EA00042F400021A631A6B02F400020292029AA0
:104EB0001A6942F400021A611A6922F400021A61A6
:104EC0005A6C42F000625A645A6C02F0006203921B
:104ED000039A5A6A42F000625A625A6A22F00062E9
:104EE0005A6203210022582000F0AAFE582000F048
:104EF000DBFE002203215A2000F0A2FE5A2000F01F
:104F0000D3FE002203215C2000F09AFE5C2000F01A
:104F1000CBFE05B05DF804FB0038024000B595B04B
:104F20004FF480730C930523069300230D930E9387
:104F30000B93119312931393009304934FF0807289
:104F400010230F92029301224FF4800301920392E7
:104F500005936A46034606A9044801F0FBFF0030AA
:104F600018BF012015B05DF804FB00BF9039002088
:104F700000B595B04FF480730C930623069341F26D
:104F80008832002306A915480D930E930F930B93B7
:104F900011931293139301F0A0FFE0B90223009341
:104FA000019301230393102302934FF4800305938D
:104FB000052306934FF0807304900F936A4641F2E5
:104FC000883306A9054801F0C5FF003018BF01204D
:104FD00015B05DF804FB0120FAE700BF903900200E
:104FE00000B591B04FF480730893EB2302934FF018
:104FF00040724FF4406309930B924FF400530A221E
:105000000593079200236A4602A907480A930D9365
:105010000E930F93019301F0EAFF003018BF0120B7
:1050200011B05DF804FB00BF90390020F0B52C4BA7
:105030002C4C9A6B2C4842F002029A639A6B89B00E
:1050400002F002020092009A9A6942F002029A610A
:105050009A6922F002029A611A6B42F002021A6304
:105060001A6B02F002020192019A1A6B42F02002BE
:105070001A631B6B03F020030293029B40230393EC
:1050800002230493012305930A27032303A906930C
:1050900000250926079701F007F84FF4806303A95C
:1050A000204603930595079600F0FEFF4FF44073EA
:1050B00003A920460393079700F0F6FFC02303A936
:1050C00020460393079600F0EFFF2A460F215B204E
:1050D00000F0B6FD5B2000F0E7FD09B0F0BD00BFB9
:1050E0000038024000140240000402402DE9F04163
:1050F000494C4A4B236090B0204601F0D2FE07464F
:1051000000283ED101462046FFF790FF01251023DD
:105110006560A560E3604FF0807696FAA6F3B3FA77
:1051200083F3DBB2013B4FF4807820462361C4F85F
:105130001480A761E761276201F05CFE08BB66236B
:1051400009900A900B9007900D900E900F9041F2ED
:10515000883202A92046CDF82080029301F0BDFEDE
:1051600068B9992341F2883202A92046029301F0DE
:10517000B4FE20B941F28830FFF7D0FE18B1042503
:1051800046E0012544E0852309900A9007900D90A0
:105190000E900F9041F2883202A92046CDF820806F
:1051A00002930B960C9501F098FE0028E7D141F28E
:1051B00088320DF10701204601F0C2FF0028DED140
:1051C000FFF7D6FE05460028D9D181230293F023AC
:1051D00093FAA3F3B3FA83F39DF807200A21DBB215
:1051E00002F00F0201FA03F3134302A941F28832DD
:1051F00020468DF8073001F070FE0028BFD141F243
:1052000088320DF10701204601F048FF0028B6D191
:10521000284610B0BDE8F08190390020001000A0B1
:105220002DE9F743224C234D01264FF000081027AB
:10523000214681464FF6FF722846CDF8048084E867
:10524000C000A660C4F80C8002F0F1FF304600F008
:10525000D7FC022321464FF6FF72284684E88800D7
:10526000A660C4F80C8002F0E2FF032384E8880003
:10527000214608234FF6FF722846A360C4F80C802D
:1052800002F0D5FF4FF40C730193042384E88800E7
:105290004FF6FF72019BE36021462846A66002F0AC
:1052A000C6FF4946284602F0D9FF03B0BDE8F083A7
:1052B000DC3600206037002070B506468EB000282E
:1052C00000F0B6805B4B5C489A6B42F001029A6337
:1052D0009A6B02F001020092009A1A6B42F480026B
:1052E0001A631A6B02F480020192019A1A6B42F05F
:1052F00004021A631A6B02F004020292029A1A6BF9
:1053000042F008021A631A6B02F008020392039A31
:105310001A6B42F010021A631A6B02F01002049228
:10532000049A1A6B42F020021A631A6B02F02002F0
:105330000592059A1A6B42F040021A631A6B02F04A
:1053400040020692069A1A6B42F080021A631A6BA8
:1053500002F080020792079A1A6B42F480721A6375
:105360001B6B03F480730EAC0893089B012344F875
:10537000143D022221460A920C920C220D920B93AC
:1053800000F092FE4CF2037321462C48099300F082
:105390008BFE4FF6837321462948099300F084FE63
:1053A0004FF63F0321462748099300F07DFE48F25F
:1053B000331321462448099300F076FE4FF60C7310
:1053C00021462248099300F06FFE214640F2FF6318
:1053D0001F4C2048099300F067FE8023A3604FF420
:1053E0000073E3604FF4806323614FF48053636183
:1053F0004FF48043A3614FF400330025236203235D
:10540000A3622563144B3463204623606560E56125
:105410006562E562A66300F0CDFC204600F08AFCE0
:1054200038202A46052100F00BFC382000F03CFC17
:105430000EB070BD0038024000080240000C02406F
:10544000001002400014024000180240001C0240FC
:1054500008370020002002401064024038B51A4C82
:105460001A4D1B4B236002232B602B616B61AB61D8
:1054700020232361402363614FF4C073A36104219F
:105480004FF400630722236220464FF48053A96043
:1054900000216160A160E160E1616362A1626A6014
:1054A000EA60FFF709FF2046294602F0A0FE094CFA
:1054B00038B10123237040F26950FFF7B1FE207824
:1054C00038BD2070F7E700BF60370020EC360020C1
:1054D000400100A05C000020F8B5114C114D23687C
:1054E000074628780E469847636854209847112845
:1054F00013D10D4B5422B7421C601E460B4B2A7031
:1055000034BF01220C221A705420A36898473368D4
:105510002878DB6898470020F8BD0320F8BD00BF5D
:105520006000002094370020A8370020AC3700200E
:105530002DE9F74F314F324C3B6880461B6920788C
:105540009847A34688F8000050B1DFF8BCA008F1E6
:10555000020901AC6D46002698F800309E4203D344
:10556000002003B0BDE8F08F3B689BF800005B694A
:10557000294622469847234BDFF890C01A78100737
:1055800041BF2B88218829802380910741BF2B8828
:10559000C3F5477303332B80530748BF2388B5F8FF
:1055A00000E048BFC3F5EF734FEA860144BF013303
:1055B00023805AF8263051F80C2020889E458CBF55
:1055C000AEEB0303A3EB0E0390428CBF821A121AB8
:1055D0009BB292B21A44052AC8BF4AF801E05AF8B1
:1055E0000130C8BF4CF8010029F8023B5CF80130DB
:1055F000A9F80230013602340235ADE7A8370020A1
:1056000094370020AC37002098370020A0370020C6
:1056100000207047704710B50446FFF789FBA821AA
:10562000E0B2FFF79DFB10BD13B500240221C0B20C
:105630008DF80740FFF794FB8DF807009DF80730C1
:1056400003F00F038DF807309DF80730022B88BF59
:105650008DF80740044B9DF807209DF807005A700D
:1056600000229A7002B010BDAF37002073B5154C00
:105670001546A37862789A420E461FD903B3012BD0
:105680000CBF0921002104230DEB0302C0B2FFF778
:1056900081FB9DF804309DF805201B0203F4706324
:1056A000134333809DF806309DF807201B0203F456
:1056B000706313432B80A3780133A37002B070BDD5
:1056C0000321E0E7AF3700200122A421C0B2FFF799
:1056D00031BB0022A421C0B2FFF72CBBFFF7F9BFFA
:1056E00070470000084A137898420BD051788842DE
:1056F00003D1704731B9012301E0002BFAD1D05416
:10570000FFF716BB704700BFAD37002038B5044621
:105710000D460020CB49FFF795FBCB490320FFF74F
:1057200091FBCA490020FFF78DFBC9490220FFF712
:1057300089FBC6490020FFF785FBC6490020FFF71B
:1057400081FB0A20FFF73AFBC3490020FFF77AFBF1
:10575000C2490020FFF776FB0A20FFF72FFBC04964
:105760000020FFF76FFBBF490020FFF76BFBBE492E
:105770000020FFF767FBBD490020FFF763FBBC4932
:105780000020FFF75FFBBB490020FFF75BFBAD4943
:105790000020FFF757FBB8490020FFF753FBB7493C
:1057A0000020FFF74FFBB6490020FFF74BFBB54940
:1057B0000020FFF747FBB4490020FFF743FBB34944
:1057C0000020FFF73FFBB2490020FFF73BFBB14948
:1057D0000020FFF737FBA5490020FFF733FB99496D
:1057E0000020FFF72FFBAC490220FFF72BFBAB4952
:1057F0000020FFF727FBAA490020FFF723FBA94958
:105800000020FFF71FFBA8490020FFF71BFBA7495B
:105810000020FFF717FBA6490020FFF713FB97496D
:105820000020FFF70FFBA3490020FFF70BFB954972
:105830000020FFF707FBA0490020FFF703FB9F496B
:105840000020FFF7FFFA9E490220FFF7FBFA7F498D
:105850000020FFF7F7FA9B490620FFF7F3FA9A4971
:105860000020FFF7EFFA99490E20FFF7EBFA98496D
:105870000020FFF7E7FA97490E20FFF7E3FA964971
:105880000020FFF7DFFA95490A20FFF7DBFA944979
:105890000020FFF7D7FA93490020FFF7D3FA6B49AE
:1058A0000020FFF7CFFA90490A20FFF7CBFA8F4983
:1058B0000020FFF7C7FA8E490F20FFF7C3FA82498D
:1058C0000020FFF7BFFA8B490F20FFF7BBFA804992
:1058D0000020FFF7B7FA88490A20FFF7B3FA7E499C
:1058E0000020FFF7AFFA85490F20FFF7ABFA7C499C
:1058F0000020FFF7A7FA82490F20FFF7A3FA81499A
:105900000020FFF79FFA80490A20FFF79BFA7F49A2
:105910000020FFF797FA7E490A20FFF793FA4B49D8
:105920000020FFF78FFA7B490A20FFF78BFA6F49B7
:105930000020FFF787FA78490F20FFF783FA6249C2
:105940000020FFF77FFA75490F20FFF77BFA6049C7
:105950000020FFF777FA72490A20FFF773FA5E49D1
:105960000020FFF76FFA6F490F20FFF76BFA5C49D1
:105970000020FFF767FA6C490F20FFF763FA3F49F1
:105980000020FFF75FFA69490020FFF75BFA6849DA
:105990000020FFF757FA67490020FFF753FA29491B
:1059A0000020FFF74FFA64490320FFF74BFA25491F
:1059B0000020FFF747FA23490020FFF743FA5F4929
:1059C0001020FFF73FFA1F490020FFF73BFA5C4920
:1059D0001020FFF737FA00205A49FFF733FA7820F2
:1059E000FFF7ECF9002C00F0C780022C03D15649D8
:1059F0000020FFF727FA012D0BD154490020FFF7B3
:105A000021FA53490420FFF71DFA52490420FFF7F9
:105A100019FA51490020FFF715FA50490020FFF705
:105A200011FA4F490020FFF70DFA4E490020FFF709
:105A300009FA4D490020FFF705FA02490020FFF757
:105A400001FA93E0C100010823010108D700010811
:105A5000A9010108ED00010803010108190101086D
:105A60001B0101081D0101081F0101082101010896
:105A7000C3000108C5000108C7000108C9000108EA
:105A8000CB000108CD000108CF000108D1000108BA
:105A9000D3000108D500010827020108D900010838
:105AA000DB000108DD000108DF000108E10001085A
:105AB000E3000108E5000108E7000108E90001082A
:105AC0002A0201082D020108EB0001083402010836
:105AD000EF00010843020108F10001082701010855
